{
  "_format": "hh-sol-artifact-1",
  "contractName": "TravelManager",
  "sourceName": "contracts/TravelManager.sol",
  "abi": [
    {
      "anonymous": false,
      "inputs": [
        {
          "indexed": false,
          "internalType": "uint256",
          "name": "tripId",
          "type": "uint256"
        },
        {
          "indexed": false,
          "internalType": "string",
          "name": "name",
          "type": "string"
        },
        {
          "indexed": false,
          "internalType": "uint256",
          "name": "amount",
          "type": "uint256"
        },
        {
          "indexed": false,
          "internalType": "address",
          "name": "payer",
          "type": "address"
        }
      ],
      "name": "ExpenseAdded",
      "type": "event"
    },
    {
      "anonymous": false,
      "inputs": [
        {
          "indexed": false,
          "internalType": "uint256",
          "name": "tripId",
          "type": "uint256"
        },
        {
          "indexed": false,
          "internalType": "string",
          "name": "name",
          "type": "string"
        },
        {
          "indexed": false,
          "internalType": "address",
          "name": "creator",
          "type": "address"
        }
      ],
      "name": "TripCreated",
      "type": "event"
    },
    {
      "inputs": [
        {
          "internalType": "uint256",
          "name": "_tripId",
          "type": "uint256"
        },
        {
          "internalType": "string",
          "name": "_name",
          "type": "string"
        },
        {
          "internalType": "uint256",
          "name": "_amount",
          "type": "uint256"
        }
      ],
      "name": "addExpense",
      "outputs": [],
      "stateMutability": "nonpayable",
      "type": "function"
    },
    {
      "inputs": [
        {
          "internalType": "string",
          "name": "_name",
          "type": "string"
        },
        {
          "internalType": "address[]",
          "name": "_participants",
          "type": "address[]"
        }
      ],
      "name": "createTrip",
      "outputs": [],
      "stateMutability": "nonpayable",
      "type": "function"
    },
    {
      "inputs": [
        {
          "internalType": "uint256",
          "name": "_tripId",
          "type": "uint256"
        }
      ],
      "name": "getExpenses",
      "outputs": [
        {
          "components": [
            {
              "internalType": "string",
              "name": "name",
              "type": "string"
            },
            {
              "internalType": "uint256",
              "name": "amount",
              "type": "uint256"
            },
            {
              "internalType": "address",
              "name": "payer",
              "type": "address"
            }
          ],
          "internalType": "struct TravelManager.Expense[]",
          "name": "",
          "type": "tuple[]"
        }
      ],
      "stateMutability": "view",
      "type": "function"
    },
    {
      "inputs": [
        {
          "internalType": "uint256",
          "name": "_tripId",
          "type": "uint256"
        }
      ],
      "name": "getTrip",
      "outputs": [
        {
          "internalType": "string",
          "name": "name",
          "type": "string"
        },
        {
          "internalType": "address[]",
          "name": "participants",
          "type": "address[]"
        },
        {
          "components": [
            {
              "internalType": "string",
              "name": "name",
              "type": "string"
            },
            {
              "internalType": "uint256",
              "name": "amount",
              "type": "uint256"
            },
            {
              "internalType": "address",
              "name": "payer",
              "type": "address"
            }
          ],
          "internalType": "struct TravelManager.Expense[]",
          "name": "expenses",
          "type": "tuple[]"
        }
      ],
      "stateMutability": "view",
      "type": "function"
    },
    {
      "inputs": [],
      "name": "tripCount",
      "outputs": [
        {
          "internalType": "uint256",
          "name": "",
          "type": "uint256"
        }
      ],
      "stateMutability": "view",
      "type": "function"
    },
    {
      "inputs": [
        {
          "internalType": "uint256",
          "name": "",
          "type": "uint256"
        }
      ],
      "name": "trips",
      "outputs": [
        {
          "internalType": "string",
          "name": "name",
          "type": "string"
        }
      ],
      "stateMutability": "view",
      "type": "function"
    }
  ],
  "bytecode": "0x608060405234801561000f575f80fd5b506115e68061001d5f395ff3fe608060405234801561000f575f80fd5b5060043610610060575f3560e01c80630101170514610064578063094b130f1461009657806349836982146100b257806369fc6cbe146100e257806398a4db1d14610100578063f6824a7c1461011c575b5f80fd5b61007e60048036038101906100799190610a12565b61014c565b60405161008d93929190610d0d565b60405180910390f35b6100b060048036038101906100ab9190610f71565b610414565b005b6100cc60048036038101906100c79190610a12565b6104ac565b6040516100d99190610fe7565b60405180910390f35b6100ea610652565b6040516100f79190611016565b60405180910390f35b61011a6004803603810190610115919061102f565b610658565b005b61013660048036038101906101319190610a12565b61088d565b604051610143919061109b565b60405180910390f35b60608060606001548410610195576040517f08c379a000000000000000000000000000000000000000000000000000000000815260040161018c90611105565b60405180910390fd5b5f805f8681526020019081526020015f209050805f0181600101826002018280546101bf90611150565b80601f01602080910402602001604051908101604052809291908181526020018280546101eb90611150565b80156102365780601f1061020d57610100808354040283529160200191610236565b820191905f5260205f20905b81548152906001019060200180831161021957829003601f168201915b50505050509250818054806020026020016040519081016040528092919081815260200182805480156102bb57602002820191905f5260205f20905b815f9054906101000a900473ffffffffffffffffffffffffffffffffffffffff1673ffffffffffffffffffffffffffffffffffffffff1681526020019060010190808311610272575b5050505050915080805480602002602001604051908101604052809291908181526020015f905b82821015610400578382905f5260205f2090600302016040518060600160405290815f8201805461031290611150565b80601f016020809104026020016040519081016040528092919081815260200182805461033e90611150565b80156103895780601f1061036057610100808354040283529160200191610389565b820191905f5260205f20905b81548152906001019060200180831161036c57829003601f168201915b5050505050815260200160018201548152602001600282015f9054906101000a900473ffffffffffffffffffffffffffffffffffffffff1673ffffffffffffffffffffffffffffffffffffffff1673ffffffffffffffffffffffffffffffffffffffff1681525050815260200190600101906102e2565b505050509050935093509350509193909250565b5f805f60015481526020019081526020015f20905082815f019081610439919061131d565b508181600101908051906020019061045292919061092c565b507f79d81ffb7696c4202806f22882742eed89175a8fb6672ec8cc6c8a9c6a7ac4576001548433604051610488939291906113fb565b60405180910390a160015f8154809291906104a290611464565b9190505550505050565b606060015482106104f2576040517f08c379a00000000000000000000000000000000000000000000000000000000081526004016104e990611105565b60405180910390fd5b5f805f8481526020019081526020015f20905080600201805480602002602001604051908101604052809291908181526020015f905b82821015610646578382905f5260205f2090600302016040518060600160405290815f8201805461055890611150565b80601f016020809104026020016040519081016040528092919081815260200182805461058490611150565b80156105cf5780601f106105a6576101008083540402835291602001916105cf565b820191905f5260205f20905b8154815290600101906020018083116105b257829003601f168201915b5050505050815260200160018201548152602001600282015f9054906101000a900473ffffffffffffffffffffffffffffffffffffffff1673ffffffffffffffffffffffffffffffffffffffff1673ffffffffffffffffffffffffffffffffffffffff168152505081526020019060010190610528565b50505050915050919050565b60015481565b600154831061069c576040517f08c379a000000000000000000000000000000000000000000000000000000000815260040161069390611105565b60405180910390fd5b5f805f8581526020019081526020015f2090505f805b8260010180549050811015610747573373ffffffffffffffffffffffffffffffffffffffff168360010182815481106106ee576106ed6114ab565b5b905f5260205f20015f9054906101000a900473ffffffffffffffffffffffffffffffffffffffff1673ffffffffffffffffffffffffffffffffffffffff160361073a5760019150610747565b80806001019150506106b2565b5080610788576040517f08c379a000000000000000000000000000000000000000000000000000000000815260040161077f90611548565b60405180910390fd5b8160020160405180606001604052808681526020018581526020013373ffffffffffffffffffffffffffffffffffffffff16815250908060018154018082558091505060019003905f5260205f2090600302015f909190919091505f820151815f0190816107f6919061131d565b50602082015181600101556040820151816002015f6101000a81548173ffffffffffffffffffffffffffffffffffffffff021916908373ffffffffffffffffffffffffffffffffffffffff16021790555050507f8554d4a7658569a74133abedf43c48e41491964da8c9338552856d64dc6f7f038585853360405161087e9493929190611566565b60405180910390a15050505050565b5f602052805f5260405f205f91509050805f0180546108ab90611150565b80601f01602080910402602001604051908101604052809291908181526020018280546108d790611150565b80156109225780601f106108f957610100808354040283529160200191610922565b820191905f5260205f20905b81548152906001019060200180831161090557829003601f168201915b5050505050905081565b828054828255905f5260205f209081019282156109a2579160200282015b828111156109a1578251825f6101000a81548173ffffffffffffffffffffffffffffffffffffffff021916908373ffffffffffffffffffffffffffffffffffffffff1602179055509160200191906001019061094a565b5b5090506109af91906109b3565b5090565b5b808211156109ca575f815f9055506001016109b4565b5090565b5f604051905090565b5f80fd5b5f80fd5b5f819050919050565b6109f1816109df565b81146109fb575f80fd5b50565b5f81359050610a0c816109e8565b92915050565b5f60208284031215610a2757610a266109d7565b5b5f610a34848285016109fe565b91505092915050565b5f81519050919050565b5f82825260208201905092915050565b5f5b83811015610a74578082015181840152602081019050610a59565b5f8484015250505050565b5f601f19601f8301169050919050565b5f610a9982610a3d565b610aa38185610a47565b9350610ab3818560208601610a57565b610abc81610a7f565b840191505092915050565b5f81519050919050565b5f82825260208201905092915050565b5f819050602082019050919050565b5f73ffffffffffffffffffffffffffffffffffffffff82169050919050565b5f610b1982610af0565b9050919050565b610b2981610b0f565b82525050565b5f610b3a8383610b20565b60208301905092915050565b5f602082019050919050565b5f610b5c82610ac7565b610b668185610ad1565b9350610b7183610ae1565b805f5b83811015610ba1578151610b888882610b2f565b9750610b9383610b46565b925050600181019050610b74565b5085935050505092915050565b5f81519050919050565b5f82825260208201905092915050565b5f819050602082019050919050565b5f82825260208201905092915050565b5f610bf182610a3d565b610bfb8185610bd7565b9350610c0b818560208601610a57565b610c1481610a7f565b840191505092915050565b610c28816109df565b82525050565b5f606083015f8301518482035f860152610c488282610be7565b9150506020830151610c5d6020860182610c1f565b506040830151610c706040860182610b20565b508091505092915050565b5f610c868383610c2e565b905092915050565b5f602082019050919050565b5f610ca482610bae565b610cae8185610bb8565b935083602082028501610cc085610bc8565b805f5b85811015610cfb5784840389528151610cdc8582610c7b565b9450610ce783610c8e565b925060208a01995050600181019050610cc3565b50829750879550505050505092915050565b5f6060820190508181035f830152610d258186610a8f565b90508181036020830152610d398185610b52565b90508181036040830152610d4d8184610c9a565b9050949350505050565b5f80fd5b5f80fd5b7f4e487b71000000000000000000000000000000000000000000000000000000005f52604160045260245ffd5b610d9582610a7f565b810181811067ffffffffffffffff82111715610db457610db3610d5f565b5b80604052505050565b5f610dc66109ce565b9050610dd28282610d8c565b919050565b5f67ffffffffffffffff821115610df157610df0610d5f565b5b610dfa82610a7f565b9050602081019050919050565b828183375f83830152505050565b5f610e27610e2284610dd7565b610dbd565b905082815260208101848484011115610e4357610e42610d5b565b5b610e4e848285610e07565b509392505050565b5f82601f830112610e6a57610e69610d57565b5b8135610e7a848260208601610e15565b91505092915050565b5f67ffffffffffffffff821115610e9d57610e9c610d5f565b5b602082029050602081019050919050565b5f80fd5b610ebb81610b0f565b8114610ec5575f80fd5b50565b5f81359050610ed681610eb2565b92915050565b5f610eee610ee984610e83565b610dbd565b90508083825260208201905060208402830185811115610f1157610f10610eae565b5b835b81811015610f3a5780610f268882610ec8565b845260208401935050602081019050610f13565b5050509392505050565b5f82601f830112610f5857610f57610d57565b5b8135610f68848260208601610edc565b91505092915050565b5f8060408385031215610f8757610f866109d7565b5b5f83013567ffffffffffffffff811115610fa457610fa36109db565b5b610fb085828601610e56565b925050602083013567ffffffffffffffff811115610fd157610fd06109db565b5b610fdd85828601610f44565b9150509250929050565b5f6020820190508181035f830152610fff8184610c9a565b905092915050565b611010816109df565b82525050565b5f6020820190506110295f830184611007565b92915050565b5f805f60608486031215611046576110456109d7565b5b5f611053868287016109fe565b935050602084013567ffffffffffffffff811115611074576110736109db565b5b61108086828701610e56565b9250506040611091868287016109fe565b9150509250925092565b5f6020820190508181035f8301526110b38184610a8f565b905092915050565b7f5472697020646f6573206e6f74206578697374000000000000000000000000005f82015250565b5f6110ef601383610a47565b91506110fa826110bb565b602082019050919050565b5f6020820190508181035f83015261111c816110e3565b9050919050565b7f4e487b71000000000000000000000000000000000000000000000000000000005f52602260045260245ffd5b5f600282049050600182168061116757607f821691505b60208210810361117a57611179611123565b5b50919050565b5f819050815f5260205f209050919050565b5f6020601f8301049050919050565b5f82821b905092915050565b5f600883026111dc7fffffffffffffffffffffffffffffffffffffffffffffffffffffffffffffffff826111a1565b6111e686836111a1565b95508019841693508086168417925050509392505050565b5f819050919050565b5f61122161121c611217846109df565b6111fe565b6109df565b9050919050565b5f819050919050565b61123a83611207565b61124e61124682611228565b8484546111ad565b825550505050565b5f90565b611262611256565b61126d818484611231565b505050565b5b81811015611290576112855f8261125a565b600181019050611273565b5050565b601f8211156112d5576112a681611180565b6112af84611192565b810160208510156112be578190505b6112d26112ca85611192565b830182611272565b50505b505050565b5f82821c905092915050565b5f6112f55f19846008026112da565b1980831691505092915050565b5f61130d83836112e6565b9150826002028217905092915050565b61132682610a3d565b67ffffffffffffffff81111561133f5761133e610d5f565b5b6113498254611150565b611354828285611294565b5f60209050601f831160018114611385575f8415611373578287015190505b61137d8582611302565b8655506113e4565b601f19841661139386611180565b5f5b828110156113ba57848901518255600182019150602085019450602081019050611395565b868310156113d757848901516113d3601f8916826112e6565b8355505b6001600288020188555050505b505050505050565b6113f581610b0f565b82525050565b5f60608201905061140e5f830186611007565b81810360208301526114208185610a8f565b905061142f60408301846113ec565b949350505050565b7f4e487b71000000000000000000000000000000000000000000000000000000005f52601160045260245ffd5b5f61146e826109df565b91507fffffffffffffffffffffffffffffffffffffffffffffffffffffffffffffffff82036114a05761149f611437565b5b600182019050919050565b7f4e487b71000000000000000000000000000000000000000000000000000000005f52603260045260245ffd5b7f596f7520617265206e6f742061207061727469636970616e7420696e207468695f8201527f7320747269700000000000000000000000000000000000000000000000000000602082015250565b5f611532602683610a47565b915061153d826114d8565b604082019050919050565b5f6020820190508181035f83015261155f81611526565b9050919050565b5f6080820190506115795f830187611007565b818103602083015261158b8186610a8f565b905061159a6040830185611007565b6115a760608301846113ec565b9594505050505056fea2646970667358221220c9be21ed3d4e9a54f5d8a9026aa74fa08f32327b664d8d67c619a64ca224b52364736f6c63430008180033",
  "linkReferences": {},
  "deployedLinkReferences": {}
}